{
  "_format": "hh-sol-artifact-1",
  "contractName": "ShopNFT",
  "sourceName": "contracts/ShopNFT.sol",
  "abi": [
    {
      "inputs": [],
      "stateMutability": "payable",
      "type": "constructor"
    },
    {
      "anonymous": false,
      "inputs": [
        {
          "indexed": true,
          "internalType": "address",
          "name": "owner",
          "type": "address"
        },
        {
          "indexed": true,
          "internalType": "address",
          "name": "approved",
          "type": "address"
        },
        {
          "indexed": true,
          "internalType": "uint256",
          "name": "tokenId",
          "type": "uint256"
        }
      ],
      "name": "Approval",
      "type": "event"
    },
    {
      "anonymous": false,
      "inputs": [
        {
          "indexed": true,
          "internalType": "address",
          "name": "owner",
          "type": "address"
        },
        {
          "indexed": true,
          "internalType": "address",
          "name": "operator",
          "type": "address"
        },
        {
          "indexed": false,
          "internalType": "bool",
          "name": "approved",
          "type": "bool"
        }
      ],
      "name": "ApprovalForAll",
      "type": "event"
    },
    {
      "anonymous": false,
      "inputs": [
        {
          "indexed": true,
          "internalType": "address",
          "name": "previousOwner",
          "type": "address"
        },
        {
          "indexed": true,
          "internalType": "address",
          "name": "newOwner",
          "type": "address"
        }
      ],
      "name": "OwnershipTransferred",
      "type": "event"
    },
    {
      "anonymous": false,
      "inputs": [
        {
          "indexed": true,
          "internalType": "address",
          "name": "from",
          "type": "address"
        },
        {
          "indexed": true,
          "internalType": "address",
          "name": "to",
          "type": "address"
        },
        {
          "indexed": true,
          "internalType": "uint256",
          "name": "tokenId",
          "type": "uint256"
        }
      ],
      "name": "Transfer",
      "type": "event"
    },
    {
      "inputs": [],
      "name": "Owner",
      "outputs": [
        {
          "internalType": "address",
          "name": "",
          "type": "address"
        }
      ],
      "stateMutability": "view",
      "type": "function"
    },
    {
      "inputs": [
        {
          "internalType": "address",
          "name": "to",
          "type": "address"
        },
        {
          "internalType": "uint256",
          "name": "tokenId",
          "type": "uint256"
        }
      ],
      "name": "approve",
      "outputs": [],
      "stateMutability": "nonpayable",
      "type": "function"
    },
    {
      "inputs": [
        {
          "internalType": "address",
          "name": "owner",
          "type": "address"
        }
      ],
      "name": "balanceOf",
      "outputs": [
        {
          "internalType": "uint256",
          "name": "",
          "type": "uint256"
        }
      ],
      "stateMutability": "view",
      "type": "function"
    },
    {
      "inputs": [],
      "name": "baseURI",
      "outputs": [
        {
          "internalType": "string",
          "name": "",
          "type": "string"
        }
      ],
      "stateMutability": "view",
      "type": "function"
    },
    {
      "inputs": [],
      "name": "cost",
      "outputs": [
        {
          "internalType": "uint256",
          "name": "",
          "type": "uint256"
        }
      ],
      "stateMutability": "view",
      "type": "function"
    },
    {
      "inputs": [
        {
          "internalType": "uint256",
          "name": "tokenId",
          "type": "uint256"
        }
      ],
      "name": "getApproved",
      "outputs": [
        {
          "internalType": "address",
          "name": "",
          "type": "address"
        }
      ],
      "stateMutability": "view",
      "type": "function"
    },
    {
      "inputs": [],
      "name": "getBalance",
      "outputs": [
        {
          "internalType": "uint256",
          "name": "",
          "type": "uint256"
        }
      ],
      "stateMutability": "view",
      "type": "function"
    },
    {
      "inputs": [
        {
          "internalType": "address",
          "name": "owner",
          "type": "address"
        },
        {
          "internalType": "address",
          "name": "operator",
          "type": "address"
        }
      ],
      "name": "isApprovedForAll",
      "outputs": [
        {
          "internalType": "bool",
          "name": "",
          "type": "bool"
        }
      ],
      "stateMutability": "view",
      "type": "function"
    },
    {
      "inputs": [],
      "name": "maxMintAmount",
      "outputs": [
        {
          "internalType": "uint256",
          "name": "",
          "type": "uint256"
        }
      ],
      "stateMutability": "view",
      "type": "function"
    },
    {
      "inputs": [],
      "name": "maxSupply",
      "outputs": [
        {
          "internalType": "uint256",
          "name": "",
          "type": "uint256"
        }
      ],
      "stateMutability": "view",
      "type": "function"
    },
    {
      "inputs": [
        {
          "internalType": "uint256",
          "name": "_mintAmount",
          "type": "uint256"
        }
      ],
      "name": "mint",
      "outputs": [],
      "stateMutability": "payable",
      "type": "function"
    },
    {
      "inputs": [],
      "name": "name",
      "outputs": [
        {
          "internalType": "string",
          "name": "",
          "type": "string"
        }
      ],
      "stateMutability": "view",
      "type": "function"
    },
    {
      "inputs": [],
      "name": "owner",
      "outputs": [
        {
          "internalType": "address",
          "name": "",
          "type": "address"
        }
      ],
      "stateMutability": "view",
      "type": "function"
    },
    {
      "inputs": [
        {
          "internalType": "uint256",
          "name": "tokenId",
          "type": "uint256"
        }
      ],
      "name": "ownerOf",
      "outputs": [
        {
          "internalType": "address",
          "name": "",
          "type": "address"
        }
      ],
      "stateMutability": "view",
      "type": "function"
    },
    {
      "inputs": [],
      "name": "pause",
      "outputs": [],
      "stateMutability": "nonpayable",
      "type": "function"
    },
    {
      "inputs": [],
      "name": "paused",
      "outputs": [
        {
          "internalType": "bool",
          "name": "",
          "type": "bool"
        }
      ],
      "stateMutability": "view",
      "type": "function"
    },
    {
      "inputs": [],
      "name": "renounceOwnership",
      "outputs": [],
      "stateMutability": "nonpayable",
      "type": "function"
    },
    {
      "inputs": [
        {
          "internalType": "address",
          "name": "from",
          "type": "address"
        },
        {
          "internalType": "address",
          "name": "to",
          "type": "address"
        },
        {
          "internalType": "uint256",
          "name": "tokenId",
          "type": "uint256"
        }
      ],
      "name": "safeTransferFrom",
      "outputs": [],
      "stateMutability": "nonpayable",
      "type": "function"
    },
    {
      "inputs": [
        {
          "internalType": "address",
          "name": "from",
          "type": "address"
        },
        {
          "internalType": "address",
          "name": "to",
          "type": "address"
        },
        {
          "internalType": "uint256",
          "name": "tokenId",
          "type": "uint256"
        },
        {
          "internalType": "bytes",
          "name": "data",
          "type": "bytes"
        }
      ],
      "name": "safeTransferFrom",
      "outputs": [],
      "stateMutability": "nonpayable",
      "type": "function"
    },
    {
      "inputs": [
        {
          "internalType": "address",
          "name": "operator",
          "type": "address"
        },
        {
          "internalType": "bool",
          "name": "approved",
          "type": "bool"
        }
      ],
      "name": "setApprovalForAll",
      "outputs": [],
      "stateMutability": "nonpayable",
      "type": "function"
    },
    {
      "inputs": [
        {
          "internalType": "string",
          "name": "_newBaseURI",
          "type": "string"
        }
      ],
      "name": "setBaseURI",
      "outputs": [],
      "stateMutability": "nonpayable",
      "type": "function"
    },
    {
      "inputs": [
        {
          "internalType": "uint256",
          "name": "_newCost",
          "type": "uint256"
        }
      ],
      "name": "setCost",
      "outputs": [],
      "stateMutability": "nonpayable",
      "type": "function"
    },
    {
      "inputs": [
        {
          "internalType": "uint256",
          "name": "_newMaxSupply",
          "type": "uint256"
        }
      ],
      "name": "setMaxSupply",
      "outputs": [],
      "stateMutability": "nonpayable",
      "type": "function"
    },
    {
      "inputs": [
        {
          "internalType": "uint256",
          "name": "_newmaxMintAmount",
          "type": "uint256"
        }
      ],
      "name": "setmaxMintAmount",
      "outputs": [],
      "stateMutability": "nonpayable",
      "type": "function"
    },
    {
      "inputs": [
        {
          "internalType": "bytes4",
          "name": "interfaceId",
          "type": "bytes4"
        }
      ],
      "name": "supportsInterface",
      "outputs": [
        {
          "internalType": "bool",
          "name": "",
          "type": "bool"
        }
      ],
      "stateMutability": "view",
      "type": "function"
    },
    {
      "inputs": [],
      "name": "symbol",
      "outputs": [
        {
          "internalType": "string",
          "name": "",
          "type": "string"
        }
      ],
      "stateMutability": "view",
      "type": "function"
    },
    {
      "inputs": [
        {
          "internalType": "uint256",
          "name": "index",
          "type": "uint256"
        }
      ],
      "name": "tokenByIndex",
      "outputs": [
        {
          "internalType": "uint256",
          "name": "",
          "type": "uint256"
        }
      ],
      "stateMutability": "view",
      "type": "function"
    },
    {
      "inputs": [
        {
          "internalType": "address",
          "name": "owner",
          "type": "address"
        },
        {
          "internalType": "uint256",
          "name": "index",
          "type": "uint256"
        }
      ],
      "name": "tokenOfOwnerByIndex",
      "outputs": [
        {
          "internalType": "uint256",
          "name": "",
          "type": "uint256"
        }
      ],
      "stateMutability": "view",
      "type": "function"
    },
    {
      "inputs": [
        {
          "internalType": "uint256",
          "name": "tokenId",
          "type": "uint256"
        }
      ],
      "name": "tokenURI",
      "outputs": [
        {
          "internalType": "string",
          "name": "",
          "type": "string"
        }
      ],
      "stateMutability": "view",
      "type": "function"
    },
    {
      "inputs": [],
      "name": "totalSupply",
      "outputs": [
        {
          "internalType": "uint256",
          "name": "",
          "type": "uint256"
        }
      ],
      "stateMutability": "view",
      "type": "function"
    },
    {
      "inputs": [
        {
          "internalType": "address",
          "name": "from",
          "type": "address"
        },
        {
          "internalType": "address",
          "name": "to",
          "type": "address"
        },
        {
          "internalType": "uint256",
          "name": "tokenId",
          "type": "uint256"
        }
      ],
      "name": "transferFrom",
      "outputs": [],
      "stateMutability": "nonpayable",
      "type": "function"
    },
    {
      "inputs": [
        {
          "internalType": "address",
          "name": "newOwner",
          "type": "address"
        }
      ],
      "name": "transferOwnership",
      "outputs": [],
      "stateMutability": "nonpayable",
      "type": "function"
    },
    {
      "inputs": [
        {
          "internalType": "address",
          "name": "_owner",
          "type": "address"
        }
      ],
      "name": "walletOfOwner",
      "outputs": [
        {
          "internalType": "uint256[]",
          "name": "",
          "type": "uint256[]"
        }
      ],
      "stateMutability": "view",
      "type": "function"
    },
    {
      "inputs": [
        {
          "internalType": "address",
          "name": "_to",
          "type": "address"
        }
      ],
      "name": "withdraw",
      "outputs": [],
      "stateMutability": "nonpayable",
      "type": "function"
    }
  ],
  "bytecode": "0x608060405273c98e9c69119eb0b764b0d5dcbc1532de8bfc2d4f600c60006101000a81548173ffffffffffffffffffffffffffffffffffffffff021916908373ffffffffffffffffffffffffffffffffffffffff160217905550604051806060016040528060358152602001620041be60359139600d90805190602001906200008a9291906200024c565b506000600e60006101000a81548160ff02191690831515021790555064e8d4a51000600f556010805560036011556040518060400160405280600a81526020017f53686f70436f696e5431000000000000000000000000000000000000000000008152506040518060400160405280600481526020017f534354310000000000000000000000000000000000000000000000000000000081525081600090805190602001906200013c9291906200024c565b508060019080519060200190620001559291906200024c565b505050620001786200016c6200017e60201b60201c565b6200018660201b60201c565b62000361565b600033905090565b6000600a60009054906101000a900473ffffffffffffffffffffffffffffffffffffffff16905081600a60006101000a81548173ffffffffffffffffffffffffffffffffffffffff021916908373ffffffffffffffffffffffffffffffffffffffff1602179055508173ffffffffffffffffffffffffffffffffffffffff168173ffffffffffffffffffffffffffffffffffffffff167f8be0079c531659141344cd1fd0a4f28419497f9722a3daafe3b4186f6b6457e060405160405180910390a35050565b8280546200025a90620002fc565b90600052602060002090601f0160209004810192826200027e5760008555620002ca565b82601f106200029957805160ff1916838001178555620002ca565b82800160010185558215620002ca579182015b82811115620002c9578251825591602001919060010190620002ac565b5b509050620002d99190620002dd565b5090565b5b80821115620002f8576000816000905550600101620002de565b5090565b600060028204905060018216806200031557607f821691505b602082108114156200032c576200032b62000332565b5b50919050565b7f4e487b7100000000000000000000000000000000000000000000000000000000600052602260045260246000fd5b613e4d80620003716000396000f3fe6080604052600436106101f95760003560e01c80636352211e1161010d57806395d89b41116100a0578063b88d4fde1161006f578063b88d4fde14610712578063c87b56dd1461073b578063d5abeb0114610778578063e985e9c5146107a3578063f2fde38b146107e0576101f9565b806395d89b4114610677578063a0712d68146106a2578063a22cb465146106be578063b4a99a4e146106e7576101f9565b8063715018a6116100dc578063715018a6146105f55780637f00c7a61461060c5780638456cb59146106355780638da5cb5b1461064c576101f9565b80636352211e146105275780636c0360eb146105645780636f8b44b01461058f57806370a08231146105b8576101f9565b806323b872dd1161019057806344a0d68a1161015f57806344a0d68a146104445780634f6ccce71461046d57806351cff8d9146104aa57806355f804b3146104d35780635c975abb146104fc576101f9565b806323b872dd146103785780632f745c59146103a157806342842e0e146103de578063438b630014610407576101f9565b806312065fe0116101cc57806312065fe0146102cc57806313faede6146102f757806318160ddd14610322578063239c70ae1461034d576101f9565b806301ffc9a7146101fe57806306fdde031461023b578063081812fc14610266578063095ea7b3146102a3575b600080fd5b34801561020a57600080fd5b5061022560048036038101906102209190612c45565b610809565b60405161023291906131d5565b60405180910390f35b34801561024757600080fd5b50610250610883565b60405161025d91906131f0565b60405180910390f35b34801561027257600080fd5b5061028d60048036038101906102889190612cd8565b610915565b60405161029a919061314c565b60405180910390f35b3480156102af57600080fd5b506102ca60048036038101906102c59190612c09565b61095b565b005b3480156102d857600080fd5b506102e1610a73565b6040516102ee9190613452565b60405180910390f35b34801561030357600080fd5b5061030c610a7b565b6040516103199190613452565b60405180910390f35b34801561032e57600080fd5b50610337610a81565b6040516103449190613452565b60405180910390f35b34801561035957600080fd5b50610362610a8b565b60405161036f9190613452565b60405180910390f35b34801561038457600080fd5b5061039f600480360381019061039a9190612b03565b610a91565b005b3480156103ad57600080fd5b506103c860048036038101906103c39190612c09565b610af1565b6040516103d59190613452565b60405180910390f35b3480156103ea57600080fd5b5061040560048036038101906104009190612b03565b610b96565b005b34801561041357600080fd5b5061042e60048036038101906104299190612a9e565b610bb6565b60405161043b91906131b3565b60405180910390f35b34801561045057600080fd5b5061046b60048036038101906104669190612cd8565b610cb0565b005b34801561047957600080fd5b50610494600480360381019061048f9190612cd8565b610cc2565b6040516104a19190613452565b60405180910390f35b3480156104b657600080fd5b506104d160048036038101906104cc9190612a9e565b610d59565b005b3480156104df57600080fd5b506104fa60048036038101906104f59190612c97565b610e05565b005b34801561050857600080fd5b50610511610e27565b60405161051e91906131d5565b60405180910390f35b34801561053357600080fd5b5061054e60048036038101906105499190612cd8565b610e3a565b60405161055b919061314c565b60405180910390f35b34801561057057600080fd5b50610579610eec565b60405161058691906131f0565b60405180910390f35b34801561059b57600080fd5b506105b660048036038101906105b19190612cd8565b610f7a565b005b3480156105c457600080fd5b506105df60048036038101906105da9190612a9e565b610f8c565b6040516105ec9190613452565b60405180910390f35b34801561060157600080fd5b5061060a611044565b005b34801561061857600080fd5b50610633600480360381019061062e9190612cd8565b611058565b005b34801561064157600080fd5b5061064a61106a565b005b34801561065857600080fd5b5061066161109e565b60405161066e919061314c565b60405180910390f35b34801561068357600080fd5b5061068c6110c8565b60405161069991906131f0565b60405180910390f35b6106bc60048036038101906106b79190612cd8565b61115a565b005b3480156106ca57600080fd5b506106e560048036038101906106e09190612bcd565b61128e565b005b3480156106f357600080fd5b506106fc6112a4565b604051610709919061314c565b60405180910390f35b34801561071e57600080fd5b5061073960048036038101906107349190612b52565b6112ca565b005b34801561074757600080fd5b50610762600480360381019061075d9190612cd8565b61132c565b60405161076f91906131f0565b60405180910390f35b34801561078457600080fd5b5061078d611456565b60405161079a9190613452565b60405180910390f35b3480156107af57600080fd5b506107ca60048036038101906107c59190612ac7565b61145c565b6040516107d791906131d5565b60405180910390f35b3480156107ec57600080fd5b5061080760048036038101906108029190612a9e565b6114f0565b005b60007f780e9d63000000000000000000000000000000000000000000000000000000007bffffffffffffffffffffffffffffffffffffffffffffffffffffffff1916827bffffffffffffffffffffffffffffffffffffffffffffffffffffffff1916148061087c575061087b82611574565b5b9050919050565b6060600080546108929061373b565b80601f01602080910402602001604051908101604052809291908181526020018280546108be9061373b565b801561090b5780601f106108e05761010080835404028352916020019161090b565b820191906000526020600020905b8154815290600101906020018083116108ee57829003601f168201915b5050505050905090565b600061092082611656565b6004600083815260200190815260200160002060009054906101000a900473ffffffffffffffffffffffffffffffffffffffff169050919050565b600061096682610e3a565b90508073ffffffffffffffffffffffffffffffffffffffff168373ffffffffffffffffffffffffffffffffffffffff1614156109d7576040517f08c379a00000000000000000000000000000000000000000000000000000000081526004016109ce906133f2565b60405180910390fd5b8073ffffffffffffffffffffffffffffffffffffffff166109f66116a1565b73ffffffffffffffffffffffffffffffffffffffff161480610a255750610a2481610a1f6116a1565b61145c565b5b610a64576040517f08c379a0000000000000000000000000000000000000000000000000000000008152600401610a5b90613352565b60405180910390fd5b610a6e83836116a9565b505050565b600047905090565b600f5481565b6000601054905090565b60115481565b610aa2610a9c6116a1565b82611762565b610ae1576040517f08c379a0000000000000000000000000000000000000000000000000000000008152600401610ad890613432565b60405180910390fd5b610aec8383836117f7565b505050565b6000610afc83610f8c565b8210610b3d576040517f08c379a0000000000000000000000000000000000000000000000000000000008152600401610b3490613232565b60405180910390fd5b600660008473ffffffffffffffffffffffffffffffffffffffff1673ffffffffffffffffffffffffffffffffffffffff168152602001908152602001600020600083815260200190815260200160002054905092915050565b610bb1838383604051806020016040528060008152506112ca565b505050565b60606000610bc383610f8c565b905060008167ffffffffffffffff811115610c07577f4e487b7100000000000000000000000000000000000000000000000000000000600052604160045260246000fd5b604051908082528060200260200182016040528015610c355781602001602082028036833780820191505090505b50905060005b82811015610ca557610c4d8582610af1565b828281518110610c86577f4e487b7100000000000000000000000000000000000000000000000000000000600052603260045260246000fd5b6020026020010181815250508080610c9d9061379e565b915050610c3b565b508092505050919050565b610cb8611a5e565b80600f8190555050565b6000610ccc611adc565b8210610d0d576040517f08c379a0000000000000000000000000000000000000000000000000000000008152600401610d0490613412565b60405180910390fd5b60088281548110610d47577f4e487b7100000000000000000000000000000000000000000000000000000000600052603260045260246000fd5b90600052602060002001549050919050565b610d61611a5e565b8073ffffffffffffffffffffffffffffffffffffffff16600c60009054906101000a900473ffffffffffffffffffffffffffffffffffffffff1673ffffffffffffffffffffffffffffffffffffffff1614610dbb57600080fd5b8073ffffffffffffffffffffffffffffffffffffffff166108fc479081150290604051600060405180830381858888f19350505050158015610e01573d6000803e3d6000fd5b5050565b610e0d611a5e565b80600d9080519060200190610e239291906128c2565b5050565b600e60009054906101000a900460ff1681565b6000806002600084815260200190815260200160002060009054906101000a900473ffffffffffffffffffffffffffffffffffffffff169050600073ffffffffffffffffffffffffffffffffffffffff168173ffffffffffffffffffffffffffffffffffffffff161415610ee3576040517f08c379a0000000000000000000000000000000000000000000000000000000008152600401610eda906133d2565b60405180910390fd5b80915050919050565b600d8054610ef99061373b565b80601f0160208091040260200160405190810160405280929190818152602001828054610f259061373b565b8015610f725780601f10610f4757610100808354040283529160200191610f72565b820191906000526020600020905b815481529060010190602001808311610f5557829003601f168201915b505050505081565b610f82611a5e565b8060108190555050565b60008073ffffffffffffffffffffffffffffffffffffffff168273ffffffffffffffffffffffffffffffffffffffff161415610ffd576040517f08c379a0000000000000000000000000000000000000000000000000000000008152600401610ff490613332565b60405180910390fd5b600360008373ffffffffffffffffffffffffffffffffffffffff1673ffffffffffffffffffffffffffffffffffffffff168152602001908152602001600020549050919050565b61104c611a5e565b6110566000611ae9565b565b611060611a5e565b8060118190555050565b611072611a5e565b600e60009054906101000a900460ff1615600e60006101000a81548160ff021916908315150217905550565b6000600a60009054906101000a900473ffffffffffffffffffffffffffffffffffffffff16905090565b6060600180546110d79061373b565b80601f01602080910402602001604051908101604052809291908181526020018280546111039061373b565b80156111505780601f1061112557610100808354040283529160200191611150565b820191906000526020600020905b81548152906001019060200180831161113357829003601f168201915b5050505050905090565b60011515600e60009054906101000a900460ff16151514156111b1576040517f08c379a00000000000000000000000000000000000000000000000000000000081526004016111a890613212565b60405180910390fd5b600081116111be57600080fd5b6011548111156111cd57600080fd5b3481600f546111dc91906135f7565b111561121d576040517f08c379a000000000000000000000000000000000000000000000000000000000815260040161121490613312565b60405180910390fd5b60005b8181101561128a576000611234600b611baf565b90505b61124081611bbd565b156112585781806112509061379e565b925050611237565b60105481116112765761126b3382611c29565b611275600b611c47565b5b5080806112829061379e565b915050611220565b5050565b6112a06112996116a1565b8383611c5d565b5050565b600c60009054906101000a900473ffffffffffffffffffffffffffffffffffffffff1681565b6112db6112d56116a1565b83611762565b61131a576040517f08c379a000000000000000000000000000000000000000000000000000000000815260040161131190613432565b60405180910390fd5b61132684848484611dca565b50505050565b606061133782611bbd565b611376576040517f08c379a000000000000000000000000000000000000000000000000000000000815260040161136d906133b2565b60405180910390fd5b6000600d80546113859061373b565b80601f01602080910402602001604051908101604052809291908181526020018280546113b19061373b565b80156113fe5780601f106113d3576101008083540402835291602001916113fe565b820191906000526020600020905b8154815290600101906020018083116113e157829003601f168201915b505050505090506000815111611423576040518060200160405280600081525061144e565b8061142d84611e26565b60405160200161143e929190613112565b6040516020818303038152906040525b915050919050565b60105481565b6000600560008473ffffffffffffffffffffffffffffffffffffffff1673ffffffffffffffffffffffffffffffffffffffff16815260200190815260200160002060008373ffffffffffffffffffffffffffffffffffffffff1673ffffffffffffffffffffffffffffffffffffffff16815260200190815260200160002060009054906101000a900460ff16905092915050565b6114f8611a5e565b600073ffffffffffffffffffffffffffffffffffffffff168173ffffffffffffffffffffffffffffffffffffffff161415611568576040517f08c379a000000000000000000000000000000000000000000000000000000000815260040161155f90613272565b60405180910390fd5b61157181611ae9565b50565b60007f80ac58cd000000000000000000000000000000000000000000000000000000007bffffffffffffffffffffffffffffffffffffffffffffffffffffffff1916827bffffffffffffffffffffffffffffffffffffffffffffffffffffffff1916148061163f57507f5b5e139f000000000000000000000000000000000000000000000000000000007bffffffffffffffffffffffffffffffffffffffffffffffffffffffff1916827bffffffffffffffffffffffffffffffffffffffffffffffffffffffff1916145b8061164f575061164e82611fd3565b5b9050919050565b61165f81611bbd565b61169e576040517f08c379a0000000000000000000000000000000000000000000000000000000008152600401611695906133d2565b60405180910390fd5b50565b600033905090565b816004600083815260200190815260200160002060006101000a81548173ffffffffffffffffffffffffffffffffffffffff021916908373ffffffffffffffffffffffffffffffffffffffff160217905550808273ffffffffffffffffffffffffffffffffffffffff1661171c83610e3a565b73ffffffffffffffffffffffffffffffffffffffff167f8c5be1e5ebec7d5bd14f71427d1e84f3dd0314c0f7b2291e5b200ac8c7c3b92560405160405180910390a45050565b60008061176e83610e3a565b90508073ffffffffffffffffffffffffffffffffffffffff168473ffffffffffffffffffffffffffffffffffffffff1614806117b057506117af818561145c565b5b806117ee57508373ffffffffffffffffffffffffffffffffffffffff166117d684610915565b73ffffffffffffffffffffffffffffffffffffffff16145b91505092915050565b8273ffffffffffffffffffffffffffffffffffffffff1661181782610e3a565b73ffffffffffffffffffffffffffffffffffffffff161461186d576040517f08c379a000000000000000000000000000000000000000000000000000000000815260040161186490613292565b60405180910390fd5b600073ffffffffffffffffffffffffffffffffffffffff168273ffffffffffffffffffffffffffffffffffffffff1614156118dd576040517f08c379a00000000000000000000000000000000000000000000000000000000081526004016118d4906132d2565b60405180910390fd5b6118e883838361203d565b6118f36000826116a9565b6001600360008573ffffffffffffffffffffffffffffffffffffffff1673ffffffffffffffffffffffffffffffffffffffff16815260200190815260200160002060008282546119439190613651565b925050819055506001600360008473ffffffffffffffffffffffffffffffffffffffff1673ffffffffffffffffffffffffffffffffffffffff168152602001908152602001600020600082825461199a9190613570565b92505081905550816002600083815260200190815260200160002060006101000a81548173ffffffffffffffffffffffffffffffffffffffff021916908373ffffffffffffffffffffffffffffffffffffffff160217905550808273ffffffffffffffffffffffffffffffffffffffff168473ffffffffffffffffffffffffffffffffffffffff167fddf252ad1be2c89b69c2b068fc378daa952ba7f163c4a11628f55a4df523b3ef60405160405180910390a4611a59838383612151565b505050565b611a666116a1565b73ffffffffffffffffffffffffffffffffffffffff16611a8461109e565b73ffffffffffffffffffffffffffffffffffffffff1614611ada576040517f08c379a0000000000000000000000000000000000000000000000000000000008152600401611ad190613392565b60405180910390fd5b565b6000600880549050905090565b6000600a60009054906101000a900473ffffffffffffffffffffffffffffffffffffffff16905081600a60006101000a81548173ffffffffffffffffffffffffffffffffffffffff021916908373ffffffffffffffffffffffffffffffffffffffff1602179055508173ffffffffffffffffffffffffffffffffffffffff168173ffffffffffffffffffffffffffffffffffffffff167f8be0079c531659141344cd1fd0a4f28419497f9722a3daafe3b4186f6b6457e060405160405180910390a35050565b600081600001549050919050565b60008073ffffffffffffffffffffffffffffffffffffffff166002600084815260200190815260200160002060009054906101000a900473ffffffffffffffffffffffffffffffffffffffff1673ffffffffffffffffffffffffffffffffffffffff1614159050919050565b611c43828260405180602001604052806000815250612156565b5050565b6001816000016000828254019250508190555050565b8173ffffffffffffffffffffffffffffffffffffffff168373ffffffffffffffffffffffffffffffffffffffff161415611ccc576040517f08c379a0000000000000000000000000000000000000000000000000000000008152600401611cc3906132f2565b60405180910390fd5b80600560008573ffffffffffffffffffffffffffffffffffffffff1673ffffffffffffffffffffffffffffffffffffffff16815260200190815260200160002060008473ffffffffffffffffffffffffffffffffffffffff1673ffffffffffffffffffffffffffffffffffffffff16815260200190815260200160002060006101000a81548160ff0219169083151502179055508173ffffffffffffffffffffffffffffffffffffffff168373ffffffffffffffffffffffffffffffffffffffff167f17307eab39ab6107e8899845ad3d59bd9653f200f220920489ca2b5937696c3183604051611dbd91906131d5565b60405180910390a3505050565b611dd58484846117f7565b611de1848484846121b1565b611e20576040517f08c379a0000000000000000000000000000000000000000000000000000000008152600401611e1790613252565b60405180910390fd5b50505050565b60606000821415611e6e576040518060400160405280600181526020017f30000000000000000000000000000000000000000000000000000000000000008152509050611fce565b600082905060005b60008214611ea0578080611e899061379e565b915050600a82611e9991906135c6565b9150611e76565b60008167ffffffffffffffff811115611ee2577f4e487b7100000000000000000000000000000000000000000000000000000000600052604160045260246000fd5b6040519080825280601f01601f191660200182016040528015611f145781602001600182028036833780820191505090505b5090505b60008514611fc757600182611f2d9190613651565b9150600a85611f3c91906137e7565b6030611f489190613570565b60f81b818381518110611f84577f4e487b7100000000000000000000000000000000000000000000000000000000600052603260045260246000fd5b60200101907effffffffffffffffffffffffffffffffffffffffffffffffffffffffffffff1916908160001a905350600a85611fc091906135c6565b9450611f18565b8093505050505b919050565b60007f01ffc9a7000000000000000000000000000000000000000000000000000000007bffffffffffffffffffffffffffffffffffffffffffffffffffffffff1916827bffffffffffffffffffffffffffffffffffffffffffffffffffffffff1916149050919050565b612048838383612348565b600073ffffffffffffffffffffffffffffffffffffffff168373ffffffffffffffffffffffffffffffffffffffff16141561208b576120868161234d565b6120ca565b8173ffffffffffffffffffffffffffffffffffffffff168373ffffffffffffffffffffffffffffffffffffffff16146120c9576120c88382612396565b5b5b600073ffffffffffffffffffffffffffffffffffffffff168273ffffffffffffffffffffffffffffffffffffffff16141561210d5761210881612503565b61214c565b8273ffffffffffffffffffffffffffffffffffffffff168273ffffffffffffffffffffffffffffffffffffffff161461214b5761214a8282612646565b5b5b505050565b505050565b61216083836126c5565b61216d60008484846121b1565b6121ac576040517f08c379a00000000000000000000000000000000000000000000000000000000081526004016121a390613252565b60405180910390fd5b505050565b60006121d28473ffffffffffffffffffffffffffffffffffffffff1661289f565b1561233b578373ffffffffffffffffffffffffffffffffffffffff1663150b7a026121fb6116a1565b8786866040518563ffffffff1660e01b815260040161221d9493929190613167565b602060405180830381600087803b15801561223757600080fd5b505af192505050801561226857506040513d601f19601f820116820180604052508101906122659190612c6e565b60015b6122eb573d8060008114612298576040519150601f19603f3d011682016040523d82523d6000602084013e61229d565b606091505b506000815114156122e3576040517f08c379a00000000000000000000000000000000000000000000000000000000081526004016122da90613252565b60405180910390fd5b805181602001fd5b63150b7a0260e01b7bffffffffffffffffffffffffffffffffffffffffffffffffffffffff1916817bffffffffffffffffffffffffffffffffffffffffffffffffffffffff191614915050612340565b600190505b949350505050565b505050565b6008805490506009600083815260200190815260200160002081905550600881908060018154018082558091505060019003906000526020600020016000909190919091505550565b600060016123a384610f8c565b6123ad9190613651565b9050600060076000848152602001908152602001600020549050818114612492576000600660008673ffffffffffffffffffffffffffffffffffffffff1673ffffffffffffffffffffffffffffffffffffffff168152602001908152602001600020600084815260200190815260200160002054905080600660008773ffffffffffffffffffffffffffffffffffffffff1673ffffffffffffffffffffffffffffffffffffffff168152602001908152602001600020600084815260200190815260200160002081905550816007600083815260200190815260200160002081905550505b6007600084815260200190815260200160002060009055600660008573ffffffffffffffffffffffffffffffffffffffff1673ffffffffffffffffffffffffffffffffffffffff16815260200190815260200160002060008381526020019081526020016000206000905550505050565b600060016008805490506125179190613651565b905060006009600084815260200190815260200160002054905060006008838154811061256d577f4e487b7100000000000000000000000000000000000000000000000000000000600052603260045260246000fd5b9060005260206000200154905080600883815481106125b5577f4e487b7100000000000000000000000000000000000000000000000000000000600052603260045260246000fd5b90600052602060002001819055508160096000838152602001908152602001600020819055506009600085815260200190815260200160002060009055600880548061262a577f4e487b7100000000000000000000000000000000000000000000000000000000600052603160045260246000fd5b6001900381819060005260206000200160009055905550505050565b600061265183610f8c565b905081600660008573ffffffffffffffffffffffffffffffffffffffff1673ffffffffffffffffffffffffffffffffffffffff168152602001908152602001600020600083815260200190815260200160002081905550806007600084815260200190815260200160002081905550505050565b600073ffffffffffffffffffffffffffffffffffffffff168273ffffffffffffffffffffffffffffffffffffffff161415612735576040517f08c379a000000000000000000000000000000000000000000000000000000000815260040161272c90613372565b60405180910390fd5b61273e81611bbd565b1561277e576040517f08c379a0000000000000000000000000000000000000000000000000000000008152600401612775906132b2565b60405180910390fd5b61278a6000838361203d565b6001600360008473ffffffffffffffffffffffffffffffffffffffff1673ffffffffffffffffffffffffffffffffffffffff16815260200190815260200160002060008282546127da9190613570565b92505081905550816002600083815260200190815260200160002060006101000a81548173ffffffffffffffffffffffffffffffffffffffff021916908373ffffffffffffffffffffffffffffffffffffffff160217905550808273ffffffffffffffffffffffffffffffffffffffff16600073ffffffffffffffffffffffffffffffffffffffff167fddf252ad1be2c89b69c2b068fc378daa952ba7f163c4a11628f55a4df523b3ef60405160405180910390a461289b60008383612151565b5050565b6000808273ffffffffffffffffffffffffffffffffffffffff163b119050919050565b8280546128ce9061373b565b90600052602060002090601f0160209004810192826128f05760008555612937565b82601f1061290957805160ff1916838001178555612937565b82800160010185558215612937579182015b8281111561293657825182559160200191906001019061291b565b5b5090506129449190612948565b5090565b5b80821115612961576000816000905550600101612949565b5090565b600061297861297384613492565b61346d565b90508281526020810184848401111561299057600080fd5b61299b8482856136f9565b509392505050565b60006129b66129b1846134c3565b61346d565b9050828152602081018484840111156129ce57600080fd5b6129d98482856136f9565b509392505050565b6000813590506129f081613dbb565b92915050565b600081359050612a0581613dd2565b92915050565b600081359050612a1a81613de9565b92915050565b600081519050612a2f81613de9565b92915050565b600082601f830112612a4657600080fd5b8135612a56848260208601612965565b91505092915050565b600082601f830112612a7057600080fd5b8135612a808482602086016129a3565b91505092915050565b600081359050612a9881613e00565b92915050565b600060208284031215612ab057600080fd5b6000612abe848285016129e1565b91505092915050565b60008060408385031215612ada57600080fd5b6000612ae8858286016129e1565b9250506020612af9858286016129e1565b9150509250929050565b600080600060608486031215612b1857600080fd5b6000612b26868287016129e1565b9350506020612b37868287016129e1565b9250506040612b4886828701612a89565b9150509250925092565b60008060008060808587031215612b6857600080fd5b6000612b76878288016129e1565b9450506020612b87878288016129e1565b9350506040612b9887828801612a89565b925050606085013567ffffffffffffffff811115612bb557600080fd5b612bc187828801612a35565b91505092959194509250565b60008060408385031215612be057600080fd5b6000612bee858286016129e1565b9250506020612bff858286016129f6565b9150509250929050565b60008060408385031215612c1c57600080fd5b6000612c2a858286016129e1565b9250506020612c3b85828601612a89565b9150509250929050565b600060208284031215612c5757600080fd5b6000612c6584828501612a0b565b91505092915050565b600060208284031215612c8057600080fd5b6000612c8e84828501612a20565b91505092915050565b600060208284031215612ca957600080fd5b600082013567ffffffffffffffff811115612cc357600080fd5b612ccf84828501612a5f565b91505092915050565b600060208284031215612cea57600080fd5b6000612cf884828501612a89565b91505092915050565b6000612d0d83836130f4565b60208301905092915050565b612d2281613685565b82525050565b6000612d3382613504565b612d3d8185613532565b9350612d48836134f4565b8060005b83811015612d79578151612d608882612d01565b9750612d6b83613525565b925050600181019050612d4c565b5085935050505092915050565b612d8f81613697565b82525050565b6000612da08261350f565b612daa8185613543565b9350612dba818560208601613708565b612dc3816138d4565b840191505092915050565b6000612dd98261351a565b612de38185613554565b9350612df3818560208601613708565b612dfc816138d4565b840191505092915050565b6000612e128261351a565b612e1c8185613565565b9350612e2c818560208601613708565b80840191505092915050565b6000612e45601383613554565b9150612e50826138e5565b602082019050919050565b6000612e68602b83613554565b9150612e738261390e565b604082019050919050565b6000612e8b603283613554565b9150612e968261395d565b604082019050919050565b6000612eae602683613554565b9150612eb9826139ac565b604082019050919050565b6000612ed1602583613554565b9150612edc826139fb565b604082019050919050565b6000612ef4601c83613554565b9150612eff82613a4a565b602082019050919050565b6000612f17602483613554565b9150612f2282613a73565b604082019050919050565b6000612f3a601983613554565b9150612f4582613ac2565b602082019050919050565b6000612f5d601f83613554565b9150612f6882613aeb565b602082019050919050565b6000612f80602983613554565b9150612f8b82613b14565b604082019050919050565b6000612fa3603e83613554565b9150612fae82613b63565b604082019050919050565b6000612fc6602083613554565b9150612fd182613bb2565b602082019050919050565b6000612fe9600583613565565b9150612ff482613bdb565b600582019050919050565b600061300c602083613554565b915061301782613c04565b602082019050919050565b600061302f602f83613554565b915061303a82613c2d565b604082019050919050565b6000613052601883613554565b915061305d82613c7c565b602082019050919050565b6000613075602183613554565b915061308082613ca5565b604082019050919050565b6000613098602c83613554565b91506130a382613cf4565b604082019050919050565b60006130bb602e83613554565b91506130c682613d43565b604082019050919050565b60006130de600183613565565b91506130e982613d92565b600182019050919050565b6130fd816136ef565b82525050565b61310c816136ef565b82525050565b600061311e8285612e07565b9150613129826130d1565b91506131358284612e07565b915061314082612fdc565b91508190509392505050565b60006020820190506131616000830184612d19565b92915050565b600060808201905061317c6000830187612d19565b6131896020830186612d19565b6131966040830185613103565b81810360608301526131a88184612d95565b905095945050505050565b600060208201905081810360008301526131cd8184612d28565b905092915050565b60006020820190506131ea6000830184612d86565b92915050565b6000602082019050818103600083015261320a8184612dce565b905092915050565b6000602082019050818103600083015261322b81612e38565b9050919050565b6000602082019050818103600083015261324b81612e5b565b9050919050565b6000602082019050818103600083015261326b81612e7e565b9050919050565b6000602082019050818103600083015261328b81612ea1565b9050919050565b600060208201905081810360008301526132ab81612ec4565b9050919050565b600060208201905081810360008301526132cb81612ee7565b9050919050565b600060208201905081810360008301526132eb81612f0a565b9050919050565b6000602082019050818103600083015261330b81612f2d565b9050919050565b6000602082019050818103600083015261332b81612f50565b9050919050565b6000602082019050818103600083015261334b81612f73565b9050919050565b6000602082019050818103600083015261336b81612f96565b9050919050565b6000602082019050818103600083015261338b81612fb9565b9050919050565b600060208201905081810360008301526133ab81612fff565b9050919050565b600060208201905081810360008301526133cb81613022565b9050919050565b600060208201905081810360008301526133eb81613045565b9050919050565b6000602082019050818103600083015261340b81613068565b9050919050565b6000602082019050818103600083015261342b8161308b565b9050919050565b6000602082019050818103600083015261344b816130ae565b9050919050565b60006020820190506134676000830184613103565b92915050565b6000613477613488565b9050613483828261376d565b919050565b6000604051905090565b600067ffffffffffffffff8211156134ad576134ac6138a5565b5b6134b6826138d4565b9050602081019050919050565b600067ffffffffffffffff8211156134de576134dd6138a5565b5b6134e7826138d4565b9050602081019050919050565b6000819050602082019050919050565b600081519050919050565b600081519050919050565b600081519050919050565b6000602082019050919050565b600082825260208201905092915050565b600082825260208201905092915050565b600082825260208201905092915050565b600081905092915050565b600061357b826136ef565b9150613586836136ef565b9250827fffffffffffffffffffffffffffffffffffffffffffffffffffffffffffffffff038211156135bb576135ba613818565b5b828201905092915050565b60006135d1826136ef565b91506135dc836136ef565b9250826135ec576135eb613847565b5b828204905092915050565b6000613602826136ef565b915061360d836136ef565b9250817fffffffffffffffffffffffffffffffffffffffffffffffffffffffffffffffff048311821515161561364657613645613818565b5b828202905092915050565b600061365c826136ef565b9150613667836136ef565b92508282101561367a57613679613818565b5b828203905092915050565b6000613690826136cf565b9050919050565b60008115159050919050565b60007fffffffff0000000000000000000000000000000000000000000000000000000082169050919050565b600073ffffffffffffffffffffffffffffffffffffffff82169050919050565b6000819050919050565b82818337600083830152505050565b60005b8381101561372657808201518184015260208101905061370b565b83811115613735576000848401525b50505050565b6000600282049050600182168061375357607f821691505b6020821081141561376757613766613876565b5b50919050565b613776826138d4565b810181811067ffffffffffffffff82111715613795576137946138a5565b5b80604052505050565b60006137a9826136ef565b91507fffffffffffffffffffffffffffffffffffffffffffffffffffffffffffffffff8214156137dc576137db613818565b5b600182019050919050565b60006137f2826136ef565b91506137fd836136ef565b92508261380d5761380c613847565b5b828206905092915050565b7f4e487b7100000000000000000000000000000000000000000000000000000000600052601160045260246000fd5b7f4e487b7100000000000000000000000000000000000000000000000000000000600052601260045260246000fd5b7f4e487b7100000000000000000000000000000000000000000000000000000000600052602260045260246000fd5b7f4e487b7100000000000000000000000000000000000000000000000000000000600052604160045260246000fd5b6000601f19601f8301169050919050565b7f53616c65206d7573742062652061637469766500000000000000000000000000600082015250565b7f455243373231456e756d657261626c653a206f776e657220696e646578206f7560008201527f74206f6620626f756e6473000000000000000000000000000000000000000000602082015250565b7f4552433732313a207472616e7366657220746f206e6f6e20455243373231526560008201527f63656976657220696d706c656d656e7465720000000000000000000000000000602082015250565b7f4f776e61626c653a206e6577206f776e657220697320746865207a65726f206160008201527f6464726573730000000000000000000000000000000000000000000000000000602082015250565b7f4552433732313a207472616e736665722066726f6d20696e636f72726563742060008201527f6f776e6572000000000000000000000000000000000000000000000000000000602082015250565b7f4552433732313a20746f6b656e20616c7265616479206d696e74656400000000600082015250565b7f4552433732313a207472616e7366657220746f20746865207a65726f2061646460008201527f7265737300000000000000000000000000000000000000000000000000000000602082015250565b7f4552433732313a20617070726f766520746f2063616c6c657200000000000000600082015250565b7f45746865722076616c75652073656e74206973206e6f7420636f727265637400600082015250565b7f4552433732313a2061646472657373207a65726f206973206e6f74206120766160008201527f6c6964206f776e65720000000000000000000000000000000000000000000000602082015250565b7f4552433732313a20617070726f76652063616c6c6572206973206e6f7420746f60008201527f6b656e206f776e6572206e6f7220617070726f76656420666f7220616c6c0000602082015250565b7f4552433732313a206d696e7420746f20746865207a65726f2061646472657373600082015250565b7f2e6a736f6e000000000000000000000000000000000000000000000000000000600082015250565b7f4f776e61626c653a2063616c6c6572206973206e6f7420746865206f776e6572600082015250565b7f4552433732314d657461646174613a2055524920717565727920666f72206e6f60008201527f6e6578697374656e7420746f6b656e0000000000000000000000000000000000602082015250565b7f4552433732313a20696e76616c696420746f6b656e2049440000000000000000600082015250565b7f4552433732313a20617070726f76616c20746f2063757272656e74206f776e6560008201527f7200000000000000000000000000000000000000000000000000000000000000602082015250565b7f455243373231456e756d657261626c653a20676c6f62616c20696e646578206f60008201527f7574206f6620626f756e64730000000000000000000000000000000000000000602082015250565b7f4552433732313a2063616c6c6572206973206e6f7420746f6b656e206f776e6560008201527f72206e6f7220617070726f766564000000000000000000000000000000000000602082015250565b7f2f00000000000000000000000000000000000000000000000000000000000000600082015250565b613dc481613685565b8114613dcf57600080fd5b50565b613ddb81613697565b8114613de657600080fd5b50565b613df2816136a3565b8114613dfd57600080fd5b50565b613e09816136ef565b8114613e1457600080fd5b5056fea2646970667358221220ea7a59b25ac2226d53f7d86a68521e4c18052e6e2885fda1ecebbc1a78be7eae64736f6c63430008040033697066733a2f2f516d54734a78746e37454e4757746436373852647a597469626432546b77565a42484b733879745047784c4d3472",
  "linkReferences": {},
  "deployedLinkReferences": {}
}